{
  "contractName": "BadAuction",
  "abi": [
    {
      "constant": false,
      "inputs": [],
      "name": "bid",
      "outputs": [],
      "payable": true,
      "stateMutability": "payable",
      "type": "function"
    }
  ],
  "bytecode": "0x608060405260008054600160a060020a031916815560015534801561002357600080fd5b50610101806100336000396000f300608060405260043610603e5763ffffffff7c01000000000000000000000000000000000000000000000000000000006000350416631998aeef81146043575b600080fd5b6049604b565b005b600154341015605957600080fd5b60005473ffffffffffffffffffffffffffffffffffffffff161560b0576000805460015460405173ffffffffffffffffffffffffffffffffffffffff9092169290919081818185875af1925050501560b057600080fd5b6000805473ffffffffffffffffffffffffffffffffffffffff191633179055346001555600a165627a7a72305820a060f32cf3c0fa0b66e5845d60a8177377123e66e9fe87d23d6129d0093d66560029",
  "source": "pragma solidity ^0.4.25;\n\n/**\n@title Bad Auction Contract https://blog.ethereum.org/2016/06/10/smart-contract-security/\n**/\n\ncontract BadAuction {\n\n  address highestBidder = address(0);\n  uint256 highestBid = 0;\n\n    function bid() public payable {\n        if (msg.value < highestBid) throw;\n        if (highestBidder != address(0))\n            if(highestBidder.call.value(highestBid)()) throw;\n        highestBidder = msg.sender;\n        highestBid = msg.value;\n  }\n}",
  "sourcePath": "/Users/ahmed/Documents/github_projects/AwesomeSCSecurity/dasp/1-reentrancy/contracts/BadAuction.sol",
  "compiler": {
    "name": "solc",
    "version": "0.4.25+commit.59dbf8f1.Emscripten.clang"
  },
  "schemaVersion": "2.0.1",
  "updatedAt": "2018-11-11T13:35:31.714Z"
}