{
  "contractName": "BadAuction",
  "abi": [
    {
      "constant": false,
      "inputs": [
        {
          "name": "_value",
          "type": "uint256"
        }
      ],
      "name": "bid",
      "outputs": [],
      "payable": false,
      "stateMutability": "nonpayable",
      "type": "function",
      "signature": "0x454a2ab3"
    }
  ],
  "bytecode": "0x608060405234801561001057600080fd5b5061010d806100206000396000f300608060405260043610603e5763ffffffff7c0100000000000000000000000000000000000000000000000000000000600035041663454a2ab381146043575b600080fd5b348015604e57600080fd5b506058600435605a565b005b600154811015606857600080fd5b60005473ffffffffffffffffffffffffffffffffffffffff161560bd576000805460015460405173ffffffffffffffffffffffffffffffffffffffff9092169281156108fc029290818181858888f150505050505b6000805473ffffffffffffffffffffffffffffffffffffffff1916331790556001555600a165627a7a72305820aa164100bdaf097e2809cf4bd736874b00f26046195dbf73fe86dab5c42b33e10029",
  "source": "pragma solidity ^0.4.25;\n\n/**\n@title Bad Auction Contract https://blog.ethereum.org/2016/06/10/smart-contract-security/\n**/\n\ncontract BadAuction {\n\n  address highestBidder;\n  uint highestBid;\n\n  function bid(uint _value) public {\n    if (_value < highestBid) throw;\n    if (highestBidder != 0)\n      highestBidder.send(highestBid); // refund previous bidder\n    highestBidder = msg.sender;\n    highestBid = _value;\n  }\n}",
  "sourcePath": "/Users/ahmed/Documents/github_projects/AwesomeSCSecurity/dasp/1-reentrancy/contracts/BadAuction.sol",
  "compiler": {
    "name": "solc",
    "version": "0.4.25+commit.59dbf8f1.Emscripten.clang"
  },
  "schemaVersion": "3.0.0-beta.0",
  "updatedAt": "2018-11-04T16:32:58.026Z"
}