{
  "contractName": "TransferEth",
  "abi": [
    {
      "constant": false,
      "inputs": [
        {
          "name": "_value",
          "type": "uint256"
        }
      ],
      "name": "withdraw",
      "outputs": [],
      "payable": false,
      "stateMutability": "nonpayable",
      "type": "function"
    },
    {
      "constant": false,
      "inputs": [],
      "name": "deposit",
      "outputs": [],
      "payable": true,
      "stateMutability": "payable",
      "type": "function"
    }
  ],
  "bytecode": "0x608060405234801561001057600080fd5b5060d48061001f6000396000f30060806040526004361060485763ffffffff7c01000000000000000000000000000000000000000000000000000000006000350416632e1a7d4d8114604d578063d0e30db0146064575b600080fd5b348015605857600080fd5b506062600435606a565b005b6062608b565b60405133908290600081818185875af1925050501515608857600080fd5b50565b60405130903480156108fc02916000818181858888f150505050505600a165627a7a7230582069fb56c7b7660efa0b1ff1d7c180711d5fdac586896b1776a4695271c27aefe70029",
  "source": "pragma solidity ^0.4.25;\n\ncontract TransferEth {\n\n  function withdraw(uint256 _value) {\n    if (!msg.sender.call.value(_value)()) throw;\n  }\n\n  function deposit() payable {\n    address(this).send(msg.value);\n  }\n}",
  "sourcePath": "/Users/ahmed/Documents/github_projects/AwesomeSCSecurity/dasp/1-reentrancy/contracts/TransferEth.sol",
  "compiler": {
    "name": "solc",
    "version": "0.4.25+commit.59dbf8f1.Emscripten.clang"
  },
  "schemaVersion": "2.0.1",
  "updatedAt": "2018-11-12T09:14:18.113Z"
}